:020000040800F2
:10000000000002207D3100085D030008690300083C
:100010007103000879030008810300080000000054
:10002000000000000000000000000000890300083C
:100030009503000800000000A1030008AD030008BC
:10004000C1310008C1310008C1310008C1310008C8
:10005000C1310008C1310008C1310008C1310008B8
:10006000C1310008C1310008C1310008C1310008A8
:10007000C1310008C1310008C1310008C131000898
:10008000C1310008C1310008C1310008C131000888
:10009000C1310008C1310008C1310008C131000878
:1000A000C1310008C1310008C1310008C131000868
:1000B000C1310008C1310008C1310008C131000858
:1000C000C1310008C1310008C1310008C131000848
:1000D000C1310008C1310008C1310008C131000838
:1000E000C1310008C1310008C1310008C131000828
:1000F000C1310008C1310008C1310008C131000818
:10010000C1310008C1310008C1310008C131000807
:10011000C1310008C1310008C1310008C1310008F7
:10012000C1310008C1310008C1310008C1310008E7
:10013000C1310008C1310008C1310008C1310008D7
:10014000C1310008C1310008C1310008C1310008C7
:10015000C1310008C1310008C1310008C1310008B7
:10016000C1310008C1310008C1310008C1310008A7
:10017000C1310008C1310008C1310008C131000897
:10018000C1310008C1310008C1310008C131000887
:10019000C1310008C1310008C1310008C131000877
:0C01A000C1310008C1310008C131000865
:1001AC00044B05481B1A062B02D9044B03B1184704
:1001BC00704700BF6B0400206804002000000000A2
:1001CC0005490648091A891001EBD171491002D072
:1001DC00034B03B1184770476804002068040020E3
:1001EC000000000010B5064C237843B9FFF7D8FF88
:1001FC00044B13B10448AFF300800123237010BDEE
:10020C006804002000000000C434000808B5084B46
:10021C001BB108480849AFF300800848036813B9BC
:10022C00BDE80840CCE7064B002BF9D09847F7E720
:10023C0000000000C43400086C040020640400209A
:10024C0000000000134B002B08BF114B9D46A3F57B
:10025C00803A00218B460F461148124A121A02F0BE
:10026C00FFFF0D4B002B00D098470C4B002B00D000
:10027C0098470020002104000D000B4802F09CFF61
:10028C0002F0C6FF2000290000F010F802F09AFFDF
:10029C00000008000000000000000000000000004A
:1002AC0068040020CC040020F131000880B500AFB8
:1002BC004020012101F068FB1A4B4FF4C0421A6038
:1002CC00184B01221A71174B00229A71154B0322FD
:1002DC005A71144B0022DA711348124900F0D8FD00
:1002EC0011484FF4005100F0EDFE104800F020F8DA
:1002FC000E4800F01DF80D4800F01AF80B4800F0FD
:10030C0017F809484FF4C04100F0EAFE6FF07F4047
:10031C0000F00EF8054800F00BF8044800F008F85F
:10032C00DEE700BF8404002000180240FFFF3F00FE
:10033C0080B483B000AF786000BF7B685A1E7A60CF
:10034C00002BFAD10C37BD465DF8047B704700BF1B
:10035C0080B400AFBD465DF8047B704780B400AF3D
:10036C00FEE700BF80B400AFFEE700BF80B400AF73
:10037C00FEE700BF80B400AFFEE700BF80B400AF63
:10038C00BD465DF8047B704780B400AFBD465DF898
:10039C00047B704780B400AFBD465DF8047B7047AA
:1003AC0080B400AFBD465DF8047B704780B500AFEC
:1003BC00114A114B1B6843F0010313600E4B0022D2
:1003CC009A600D4A0C4B1B6823F0847323F4803322
:1003DC001360094B094A5A60074A074B1B6823F400
:1003EC0080231360044B0022DA6000F087F8044B82
:1003FC004FF000629A6080BD00380240103000243B
:10040C0000ED00E080B487B000AF00233B61002317
:10041C007B610223FB600023BB6002237B60324BB9
:10042C009B6803F00C033B613B69042B07D0082B42
:10043C0009D0002B3FD12D4B2D4A1A603FE02B4B9E
:10044C002C4A1A603BE0284B5B6803F480039B0D3D
:10045C00BB60254B5B6803F03F037B60BB68002BE4
:10046C000DD0244A7B68B2FBF3F21F4B596847F658
:10047C00C0730B409B0903FB02F37B610CE01C4A2D
:10048C007B68B2FBF3F2184B596847F6C0730B400C
:10049C009B0903FB02F37B61134B5B6803F4403352
:1004AC001B0C01335B00FB607A69FB68B2FBF3F356
:1004BC000E4A136003E00D4B0D4A1A6000BF0A4B45
:1004CC009B6803F0F0031B090B4AD35CDBB23B6166
:1004DC00064B1A683B6922FA03F3044A13601C3773
:1004EC00BD465DF8047B70470038024004000020D4
:1004FC000024F40000127A000800002080B483B0BD
:10050C0000AF00237B6000233B60354A344B1B68F3
:10051C0043F480331360324B1B6803F400333B60AD
:10052C007B6801337B603B68002B03D17B68B3F5A0
:10053C00A04FF0D12A4B1B6803F40033002B02D0E0
:10054C0001233B6001E000233B603B68012B42D15F
:10055C00234A234B1B6C43F080531364214A214BD9
:10056C001B6843F4404313601D4A1D4B9B6893600A
:10057C001B4A1B4B9B6843F400439360184A184B6F
:10058C009B6843F4A0539360154B174A5A60144A66
:10059C00134B1B6843F08073136000BF104B1B6838
:1005AC0003F00073002BF9D0104B40F205621A6077
:1005BC000B4A0B4B9B6823F003039360084A084BD0
:1005CC009B6843F00203936000BF054B9B6803F0EC
:1005DC000C03082BF9D10C37BD465DF8047B704732
:1005EC00003802400070004008544007003C0240B4
:1005FC0080B584B000AF0346FB71FB79104A52F80A
:10060C0023301846012101F0BFF9FB790D4A32F86D
:10061C001330BB6001233B730023BB730123FB73BB
:10062C0002237B73FB79084A52F8232007F1080355
:10063C001046194600F02CFC1037BD4680BD00BF9B
:10064C009C340008983400081800002080B483B053
:10065C0000AF0346FB71FB79064A52F82330FA7956
:10066C00054931F812201A830C37BD465DF8047B1E
:10067C00704700BF180000209834000880B483B085
:10068C0000AF0346FB71FB79064A52F82330FA7926
:10069C00054931F812205A830C37BD465DF8047BAE
:1006AC00704700BF180000209834000880B483B055
:1006BC0000AF0346FB71FB79094A52F82330FA79F3
:1006CC00074951F822205269F979064830F811107F
:1006DC004A405A610C37BD465DF8047B704700BF39
:1006EC00180000209834000880B588B000AF03468D
:1006FC000A46FB711346BB7101231846012101F018
:10070C0043F94FF48040012101F0B6F900233B7707
:10071C000223FB770123BB61FB79174A52F8232094
:10072C0007F118031046194600F0B2FBBB79012BF8
:10073C001FD1002200231046194600F0B9F90123FD
:10074C003B6100233B7508237B750123BB7507F1C7
:10075C001003184601F08EFB06233B730F237B73AB
:10076C000F23BB730123FB7307F10C03184600F036
:10077C002BFA2037BD4680BD2000002080B582B00A
:10078C0000AF0346FB71FB79064A52F82330012275
:10079C001846114600F046FC034618460837BD467D
:1007AC0080BD00BF2000002080B582B000AF26487D
:1007BC00002101F063FD244801F046FC4FF40000D9
:1007CC00002101F03BF94FF480733B6000233B7137
:1007DC000023FB713B461D48194600F059FB4FF4B2
:1007EC0000733B603B461A48194600F051FB194B0D
:1007FC000F221A70174B00225A70164B00229A7057
:10080C00144B0022DA70134800F0DEF9114B0D2264
:10081C001A70104B00225A700E4B00229A700D4821
:10082C0000F0D2F90C48002102F070FA0B480021BC
:10083C0002F06CFA084802F00BF9084802F008F9CB
:10084C000837BD4680BD00BF005C00400000024080
:10085C0000080240C8040020706002404060024062
:10086C0080B582B000AF4FF40000012101F0E6F832
:10087C000520012101F088F84FF48040012101F09E
:10088C00FBF84FF40000012101F06EF94FF4000069
:10089C00002101F069F94FF480733B6002233B7136
:1008AC0002237B710123BB710023FB713B4649483A
:1008BC00194600F0EDFA4FF400733B603B46464896
:1008CC00194600F0E5FA43480821042200F04EFCDA
:1008DC0041480921042200F049FC404B0F221A70B8
:1008EC003E4B00225A703D4B00229A703B4B01222A
:1008FC00DA703A4800F068F9384B0D221A70374B11
:10090C0000225A70354B00229A70344800F05CF982
:10091C004FF40010012101F037F83148314902F051
:10092C002FFB2F48002102F0F1F92D4802F090F82E
:10093C002D4B4FF0C0621A602B4B2C4A5A602A4B3D
:10094C0000229A60284B4022DA60274B4FF6FF7248
:10095C001A61254B00225A61234B4FF480629A6135
:10096C00214B0022DA61204B00221A621E4B00221E
:10097C005A621D4B4FF440329A621B4B0422DA62CE
:10098C00194B03221A63184B00225A63164B002290
:10099C009A631348144902F02DF91548154902F0D1
:1009AC00EFFA1348002102F0B1F9114802F050F8A7
:1009BC000F480D4902F01EF909481021012202F0DE
:1009CC000DFB0B481021012202F008FB0837BD4635
:1009DC0080BD00BF0000024000080240C804002097
:1009EC00706002403D0000208C040020105C004030
:1009FC004060024000003D1080B584B000AFF8604C
:100A0C00B9607A607B68002B0DD10F4AFB6893604C
:100A1C000D4B4022DA600C4ABB6813610B480A4943
:100A2C0002F0E8F80CE0084AFB689360064B0022E1
:100A3C00DA60054ABB6813610548034902F0DAF82D
:100A4C001037BD4680BD00BF8C0400207060024092
:100A5C004060024080B500AF4FF48040012101F0AE
:100A6C00A1F84FF48040002101F09CF880BD00BF3C
:100A7C0080B483B000AF0346FB71044AFB7913606A
:100A8C000C37BD465DF8047B704700BF0038014051
:100A9C0080B483B000AF0346FB71044AFB7913604A
:100AAC000C37BD465DF8047B704700BF2000274221
:100ABC0090B484B000AF03460A46FB711346BB7179
:100ACC000023FB60BB7903F003039B000F2202FAA7
:100ADC0003F3FB601649BB799B08DBB21846144A3A
:100AEC00BB799B08DBB2023352F82320FB68DB4353
:100AFC001A40831C41F823200D48BB799B08DBB2BC
:100B0C001C460B4ABB799B08DBB2023352F82320FC
:100B1C00F979BB7903F003039B0001FA03F31A4341
:100B2C00A31C40F823201037BD4690BC704700BF73
:100B3C000038014080B483B000AF7860034A7B6812
:100B4C0013600C37BD465DF8047B7047DC00274210
:100B5C0080B483B000AF0346FB71044AFB79136089
:100B6C000C37BD465DF8047B704700BF000427427C
:100B7C0080B483B000AF0023FB71094B1B6A03F4F4
:100B8C008073002B02D00123FB7101E00023FB7169
:100B9C00FB7918460C37BD465DF8047B704700BFE7
:100BAC000038014080B483B000AF7860054A7B68A0
:100BBC0043F0BF6343F40033D3600C37BD465DF89C
:100BCC00047B704700ED00E080B485B000AF786026
:100BDC000023FB730023BB730F237B737B68DB78D1
:100BEC00002B38D0264BDB68DB4303F4E0631B0A95
:100BFC00FB73FB7BC3F10403BB737A7BFB7B42FA75
:100C0C0003F37B737B685B781A46BB7B02FA03F3B6
:100C1C00FB737B689A787B7B1340DAB2FB7B1343C4
:100C2C00FB73FB7B1B01FB73164A7B681B7813441D
:100C3C00FA7B83F80023134A7B681B785B09DBB2D1
:100C4C0018467B681B7803F01F03012101FA03F39C
:100C5C0042F820300FE00B497B681B785B09DBB254
:100C6C0018467B681B7803F01F0301229A4000F1A1
:100C7C00200341F823201437BD465DF8047B7047F0
:100C8C0000ED00E000E100E080B483B000AF7860DC
:100C9C00396007493B6823F0604323F07F037A688F
:100CAC0013438B600C37BD465DF8047B704700BF67
:100CBC0000ED00E080B483B000AF03460A46FB7140
:100CCC001346BB71BB79002B06D00949084B1A6936
:100CDC00FB7913430B6106E00549054B1A69FB7957
:100CEC00DB4313400B610C37BD465DF8047B70474A
:100CFC0000ED00E080B483B000AF78607B68042B1B
:100D0C0006D1094A084B1B6843F00403136005E045
:100D1C00054A054B1B6823F0040313600C37BD46D2
:100D2C005DF8047B704700BF10E000E080B582B036
:100D3C0000AF78607B684B4A934208D101200121B7
:100D4C0000F0B8FE0120002100F0B4FE86E07B68C4
:100D5C00454A934208D10220012100F0ABFE02204B
:100D6C00002100F0A7FE79E07B68404A934208D14D
:100D7C000420012100F09EFE0420002100F09AFEC8
:100D8C006CE07B683A4A934208D10820012100F0BC
:100D9C0091FE0820002100F08DFE5FE07B68354A53
:100DAC00934208D11020012100F084FE1020002174
:100DBC0000F080FE52E07B682F4A934208D120203D
:100DCC00012100F077FE2020002100F073FE45E0A9
:100DDC007B682A4A934208D14020012100F06AFE28
:100DEC004020002100F066FE38E07B68244A9342E4
:100DFC0008D18020012100F05DFE8020002100F050
:100E0C0059FE2BE07B681F4A93420AD14FF4807045
:100E1C00012100F04FFE4FF48070002100F04AFEDB
:100E2C001CE07B68184A93420AD14FF400700121F0
:100E3C0000F040FE4FF40070002100F03BFE0DE08E
:100E4C007B68124A934209D14FF48060012100F073
:100E5C0031FE4FF48060002100F02CFE0837BD46B7
:100E6C0080BD00BF000002400004024000080240A8
:100E7C00000C024000100240001402400018024016
:100E8C00001C0240002002400024024000280240C6
:100E9C0080B487B000AF7860396000237B61002399
:100EAC003B610023FB6000237B6176E07B690122C0
:100EBC0002FA03F33B613B681A683B691340FB6021
:100ECC00FA683B699A4265D17B681A687B695B005A
:100EDC00194603238B40DB431A407B681A607B68FE
:100EEC001A683B681B7919467B695B0001FA03F3AE
:100EFC001A437B681A603B681B79012B03D03B6853
:100F0C001B79022B2ED17B689A687B695B00194692
:100F1C0003238B40DB431A407B689A607B689A689A
:100F2C003B685B7919467B695B0001FA03F31A4352
:100F3C007B689A607B685A687B699BB2194601236F
:100F4C008B40DB431A407B685A607B685B683A686D
:100F5C00927911467A6992B201FA02F292B21A436C
:100F6C007B685A607B68DA687B699BB25B00032103
:100F7C0001FA03F3DB431A407B68DA607B68DA68BA
:100F8C003B68DB7919467B695B0001FA03F31A4372
:100F9C007B68DA607B6901337B617B690F2B85D9B8
:100FAC001C37BD465DF8047B704700BF80B483B02E
:100FBC0000AF78607B684FF6FF721A607B68002286
:100FCC001A717B6800225A717B6800229A717B68C7
:100FDC000022DA710C37BD465DF8047B704700BF08
:100FEC0080B485B000AF78600B467B804FF48033C3
:100FFC00FB607A88FB681343FB60FA687B68DA61F4
:10100C007A887B68DA61FA687B68DA617B68DB690D
:10101C00FB607B68DB69FB601437BD465DF8047BC5
:10102C00704700BF80B485B000AF78600B467B8002
:10103C000023FB737B681A697B881340002B02D05A
:10104C000123FB7301E00023FB73FB7B1846143771
:10105C00BD465DF8047B704780B483B000AF786008
:10106C007B681B699BB218460C37BD465DF8047B48
:10107C00704700BF80B485B000AF78600B467B80B2
:10108C000023FB737B685A697B881340002B02D0CA
:10109C000123FB7301E00023FB73FB7B1846143721
:1010AC00BD465DF8047B704780B483B000AF7860B8
:1010BC007B685B699BB218460C37BD465DF8047BB8
:1010CC00704700BF80B483B000AF78600B467B8064
:1010DC007B687A881A830C37BD465DF8047B7047B1
:1010EC0080B483B000AF78600B467B807B687A88D5
:1010FC005A830C37BD465DF8047B704780B483B0CF
:10110C0000AF78600B467B8013467B707B78002B9E
:10111C0003D07B687A881A8302E07B687A885A83CA
:10112C000C37BD465DF8047B704700BF80B483B0BC
:10113C0000AF78600B467B807A887B685A610C37ED
:10114C00BD465DF8047B704780B483B000AF786017
:10115C000B467B807B685A697B885A407B685A6156
:10116C000C37BD465DF8047B704700BF80B485B07A
:10117C0000AF78600B467B8013467B700023FB60CE
:10118C000023BB607B787A8802F0070292009340C0
:10119C00FB607B88DB089BB218467B88DB089BB224
:1011AC001A467B68083253F822207B8803F0070329
:1011BC009B0019460F238B40DB4302EA03017B683B
:1011CC0000F1080243F822107B88DB089BB21A4618
:1011DC007B68083253F82220FB681343BB607B8882
:1011EC00DB089BB21A467B680832B96843F82210B8
:1011FC001437BD465DF8047B704700BF80B400AF68
:10120C00164A164B1B6843F001031360134B002264
:10121C009A60124A114B1B6823F0A85323F4102335
:10122C0013600E4B0E4A5A600C4B0E4AC3F88420C6
:10123C000A4B0D4AC3F88820084A084B1B6823F454
:10124C0080231360054B0022DA60044B0022C3F8A4
:10125C008C20BD465DF8047B704700BF003802400F
:10126C0010300024003000200030002480B483B003
:10127C0000AF0346FB71054B00221A70034AFB7941
:10128C0013700C37BD465DF8047B70470238024082
:10129C0080B582B000AF00233B600023FB710023BC
:1012AC00BB71312000F058FD0346BB713B68013324
:1012BC003B603B68B3F5A04F02D0BB79002BF0D05C
:1012CC00312000F049FD0346002B02D00123FB71B5
:1012DC0001E00023FB71FB7918460837BD4680BD41
:1012EC0080B485B000AF0346FB710023FB600A4B52
:1012FC001B68FB60FB6823F0F803FB60FB79DB00E9
:10130C00FA681343FB60044AFB6813601437BD464C
:10131C005DF8047B704700BF0038024080B483B096
:10132C0000AF0346FB71044AFB7913600C37BD46D2
:10133C005DF8047B704700BF0000474280B483B067
:10134C0000AF0346FB710C4B00221A700A4B0022B3
:10135C001A70FB79012B02D0042B04D007E0064B4A
:10136C0001221A7003E0044B05221A7000BF0C37DF
:10137C00BD465DF8047B70477038024080B483B082
:10138C0000AF0346FB71044AFB7913600C37BD4672
:10139C005DF8047B704700BF800E474280B485B077
:1013AC0000AFF860B9607A603B600A497B689A01CB
:1013BC00BB681A433B685B08013B1B041A43FB6880
:1013CC001A43BB691B0613434B601437BD465DF8CB
:1013DC00047B70470038024080B483B000AF0346F2
:1013EC00FB71044AFB7913600C37BD465DF8047B36
:1013FC00704700BF6000474280B485B000AFF86012
:10140C00B9607A600749FB689A01BB681B061A43EE
:10141C007B681B071343C1F884301437BD465DF855
:10142C00047B70470038024080B483B000AF0346A1
:10143C00FB71044AFB7913600C37BD465DF8047BE5
:10144C00704700BF6800474280B485B000AFF860B9
:10145C00B9607A600749FB689A01BB681B061A439E
:10146C007B681B071343C1F888301437BD465DF801
:10147C00047B70470038024080B483B000AF034651
:10148C00FB71044AFB7913600C37BD465DF8047B95
:10149C00704700BF7000474280B483B000AF034672
:1014AC00FB71044AFB7913600C37BD465DF8047B75
:1014BC00704700BF4C00474280B485B000AF7860E5
:1014CC0039600023FB600A4B9B68FB60FB6823F0D0
:1014DC00EC63FB607A683B681343FA681343FB6068
:1014EC00034AFB6893601437BD465DF8047B704774
:1014FC000038024080B485B000AF786039600023BA
:10150C00FB600A4B9B68FB60FB6823F07843FB6035
:10151C007A683B681343FA681343FB60034AFB6821
:10152C0093601437BD465DF8047B70470038024069
:10153C0080B485B000AF78600023FB60094B9B68DA
:10154C00FB60FB6823F00303FB60FA687B681343C2
:10155C00FB60044AFB6893601437BD465DF8047B5E
:10156C00704700BF0038024080B400AF054B9B6849
:10157C00DBB203F00C03DBB21846BD465DF8047B0E
:10158C00704700BF0038024080B485B000AF78606F
:10159C000023FB60094B9B68FB60FB6823F0F003A6
:1015AC00FB60FA687B681343FB60044AFB6893603A
:1015BC001437BD465DF8047B704700BF003802400D
:1015CC0080B485B000AF78600023FB60094B9B684A
:1015DC00FB60FB6823F4E053FB60FA687B68134301
:1015EC00FB60044AFB6893601437BD465DF8047BCE
:1015FC00704700BF0038024080B485B000AF7860FF
:10160C000023FB60094B9B68FB60FB6823F4604381
:10161C00FB607B68DB00FA681343FB60034AFB68E2
:10162C0093601437BD465DF8047B70470038024068
:10163C0080B489B000AF78600023BB6100237B616C
:10164C000023FB6102233B610023FB600223BB6090
:10165C00484B9B6803F00C03BB61BB69042B07D0A0
:10166C00082B09D0002B3FD17B68434A1A603FE01E
:10167C007B68424A1A603BE03E4B5B6803F4800394
:10168C009B0DFB603B4B5B6803F03F03BB60FB684F
:10169C00002B0DD0394ABB68B2FBF3F2354B5968BD
:1016AC0047F6C0730B409B0903FB02F3FB610CE094
:1016BC00314ABB68B2FBF3F22E4B596847F6C07344
:1016CC000B409B0903FB02F3FB612A4B5B6803F4A1
:1016DC0040331B0C01335B003B61FA693B69B2FB85
:1016EC00F3F27B681A6003E07B68234A1A6000BF40
:1016FC00204B9B6803F0F003BB61BB691B09BB610A
:10170C001F4ABB6913441B78DBB27B617B681A6888
:10171C007B69DA407B685A60164B9B6803F4E05394
:10172C00BB61BB699B0ABB61154ABB6913441B783F
:10173C00DBB27B617B685A687B69DA407B689A60B4
:10174C000C4B9B6803F46043BB61BB695B0BBB61D7
:10175C000B4ABB6913441B78DBB27B617B685A680C
:10176C007B69DA407B68DA602437BD465DF8047B20
:10177C00704700BF003802400024F40000127A00C9
:10178C002400002080B485B000AF78600023FB609B
:10179C007B6803F44073B3F5407F11D10F4B9B680A
:1017AC00FB60FB6823F4F813FB607B6823F0704349
:1017BC0023F44073FA681343FB60084AFB68936098
:1017CC000649064B1A6F7B68C3F30B0313430B6775
:1017DC001437BD465DF8047B704700BF00380240EB
:1017EC0080B483B000AF0346FB71044AFB791360ED
:1017FC000C37BD465DF8047B704700BF3C0E47427A
:10180C0080B483B000AF0346FB71044AFB791360CC
:10181C000C37BD465DF8047B704700BF400E474255
:10182C0080B483B000AF7860034A7B6813600C37D8
:10183C00BD465DF8047B70475C01474280B485B0BF
:10184C0000AF78600023FB600A4BD3F88C30FB6050
:10185C00FB6823F01F03FB607B68013BFA681343B2
:10186C00FB60044AFB68C2F88C301437BD465DF847
:10187C00047B70470038024080B485B000AF7860BC
:10188C000023FB600B4BD3F88C30FB60FB6823F41C
:10189C00F853FB607B68013B1B02FA681343FB6047
:1018AC00044AFB68C2F88C301437BD465DF8047BE3
:1018BC00704700BF0038024080B485B000AF78603C
:1018CC000023FB600A4BD3F88C30FB60FB6823F4DD
:1018DC004013FB60FA687B681343FB60044AFB68A7
:1018EC00C2F88C301437BD465DF8047B704700BFDE
:1018FC000038024080B485B000AF78600023FB60F4
:10190C000A4BD3F88C30FB60FB6823F44003FB607C
:10191C00FA687B681343FB60044AFB68C2F88C309E
:10192C001437BD465DF8047B704700BF0038024099
:10193C0080B485B000AF78600023FB600A4BD3F80D
:10194C008C30FB60FB6823F44033FB60FA687B68E7
:10195C001343FB60044AFB68C2F88C301437BD4655
:10196C005DF8047B704700BF0038024080B483B040
:10197C0000AF7860034A7B6813600C37BD465DF896
:10198C00047B7047E011474280B483B000AF7860AD
:10199C000B46FB70FB78002B06D00949084B1A6BE1
:1019AC007B6813430B6306E00549054B1A6B7B6898
:1019BC00DB4313400B630C37BD465DF8047B70476B
:1019CC000038024080B483B000AF78600B46FB70E7
:1019DC00FB78002B06D00949084B5A6B7B681343E4
:1019EC004B6306E00549054B5A6B7B68DB431340A0
:1019FC004B630C37BD465DF8047B704700380240E2
:101A0C0080B483B000AF78600B46FB70FB78002B82
:101A1C0006D00949084B9A6B7B6813438B6306E02D
:101A2C000549054B9A6B7B68DB4313408B630C3782
:101A3C00BD465DF8047B70470038024080B483B02B
:101A4C0000AF78600B46FB70FB78002B06D0094981
:101A5C00084B1A6C7B6813430B6406E00549054B75
:101A6C001A6C7B68DB4313400B640C37BD465DF886
:101A7C00047B70470038024080B483B000AF7860BC
:101A8C000B46FB70FB78002B06D00949084B5A6CAF
:101A9C007B6813434B6406E00549054B5A6C7B6825
:101AAC00DB4313404B640C37BD465DF8047B704739
:101ABC000038024080B483B000AF78600B46FB70F6
:101ACC00FB78002B06D00949084B1A697B68134335
:101ADC000B6106E00549054B1A697B68DB43134033
:101AEC000B610C37BD465DF8047B70470038024033
:101AFC0080B483B000AF78600B46FB70FB78002B92
:101B0C0006D00949084B5A697B6813434B6106E0C0
:101B1C000549054B5A697B68DB4313404B610C3715
:101B2C00BD465DF8047B70470038024080B483B03A
:101B3C0000AF78600B46FB70FB78002B06D0094990
:101B4C00084B9A697B6813438B6106E00549054B8A
:101B5C009A697B68DB4313408B610C37BD465DF89B
:101B6C00047B70470038024080B483B000AF7860CB
:101B7C000B46FB70FB78002B06D00949084B1A6A00
:101B8C007B6813430B6206E00549054B1A6A7B68B8
:101B9C00DB4313400B620C37BD465DF8047B70478A
:101BAC000038024080B483B000AF78600B46FB7005
:101BBC00FB78002B06D00949084B5A6A7B68134303
:101BCC004B6206E00549054B5A6A7B68DB431340C0
:101BDC004B620C37BD465DF8047B70470038024001
:101BEC0080B483B000AF78600B46FB70FB78002BA1
:101BFC0006D00949084B1A6D7B6813430B6506E048
:101C0C000549054B1A6D7B68DB4313400B650C379C
:101C1C00BD465DF8047B70470038024080B483B049
:101C2C0000AF78600B46FB70FB78002B06D009499F
:101C3C00084B5A6D7B6813434B6506E00549054B11
:101C4C005A6D7B68DB4313404B650C37BD465DF822
:101C5C00047B70470038024080B483B000AF7860DA
:101C6C000B46FB70FB78002B06D00949084B9A6D8C
:101C7C007B6813438B6506E00549054B9A6D7B68C1
:101C8C00DB4313408B650C37BD465DF8047B704716
:101C9C000038024080B483B000AF78600B46FB7014
:101CAC00FB78002B06D00949084B1A6E7B6813434E
:101CBC000B6606E00549054B1A6E7B68DB43134047
:101CCC000B660C37BD465DF8047B7047003802404C
:101CDC0080B483B000AF78600B46FB70FB78002BB0
:101CEC0006D00949084B5A6E7B6813434B6606E0D5
:101CFC000549054B5A6E7B68DB4313404B660C372A
:101D0C00BD465DF8047B70470038024080B483B058
:101D1C0000AF03460A46FB711346BB71BB79002B1F
:101D2C0008D00C490B4B1B78DAB2FB791343DBB2AE
:101D3C000B7009E00749074B1B78DAB2FB79DB43E0
:101D4C00DBB21340DBB20B700C37BD465DF8047B85
:101D5C00704700BF0D38024080B487B000AF034617
:101D6C00FB710023FB6000237B610023FB74FB7978
:101D7C005B09DBB2FB60FB68012B03D1124B1B68C8
:101D8C007B6109E0FB68022B03D10F4B1B6F7B615E
:101D9C0002E00D4B5B6F7B61FB7903F01F03FB6073
:101DAC00FB687A6922FA03F303F00103002B02D0DB
:101DBC000123FB7401E00023FB74FB7C18461C37E9
:101DCC00BD465DF8047B70470038024080B400AF1C
:101DDC00044A044B5B6F43F080735367BD465DF858
:101DEC00047B70470038024080B485B000AF0346D6
:101DFC00FB710023FB73094BDA68FB791340002B52
:101E0C0002D00123FB7301E00023FB73FB7B18461C
:101E1C001437BD465DF8047B704700BF00380240A4
:101E2C0080B483B000AF0346FB71044AFB79137096
:101E3C000C37BD465DF8047B704700BF0E3802407E
:101E4C0080B400AF094B00221A60084B00225A6084
:101E5C00064B00229A60054B0022DA60034B044AC1
:101E6C005A61BD465DF8047B704700BF003C0140E1
:101E7C00FFFF7F0080B485B000AF78600023FB606B
:101E8C00344BFB607B689B79002B4FD03149314B35
:101E9C001A687B681B68DB4313400B602D492D4B84
:101EAC005A687B681B68DB4313404B607B681B796B
:101EBC001A46FB681344FB60FB68FA6811687A6881
:101ECC0012680A431A602349224B9A687B681B6884
:101EDC00DB4313408B601F491E4BDA687B681B6821
:101EEC00DB431340CB607B685B79102B0ED1194917
:101EFC00184B9A687B681B6813438B601549154B0C
:101F0C00DA687B681B681343CB601DE0114BFB60E8
:101F1C007B685B791A46FB681344FB60FB68FA68C4
:101F2C0011687A6812680A431A600DE07B681B79A5
:101F3C001A46FB681344FB60FB68FA6811687A6800
:101F4C001268D2430A401A601437BD465DF8047B10
:101F5C00704700BF003C014080B483B000AF786094
:101F6C007B6800221A607B6800221A717B680C2245
:101F7C005A717B6800229A710C37BD465DF8047B60
:101F8C00704700BF80B483B000AF78600549054B43
:101F9C001A697B6813430B610C37BD465DF8047BF3
:101FAC00704700BF003C014080B485B000AF786042
:101FBC000023FB73084B5A697B681340002B02D03B
:101FCC000123FB7301E00023FB73FB7B18461437E2
:101FDC00BD465DF8047B7047003C014080B483B083
:101FEC0000AF7860034A7B6853610C37BD465DF8DF
:101FFC00047B7047003C014080B485B000AF786032
:10200C000023FB73084B5A697B681340002B02D0EA
:10201C000123FB7301E00023FB73FB7B1846143791
:10202C00BD465DF8047B7047003C014080B483B032
:10203C0000AF7860034A7B6853610C37BD465DF88E
:10204C00047B7047003C014080B582B000AF7860E3
:10205C007B68174A93420AD14FF400100121FFF715
:10206C0083FD4FF400100021FFF77EFD1CE07B6820
:10207C00104A93420AD14FF480000121FFF774FDFE
:10208C004FF480000021FFF76FFD0DE07B680A4ADA
:10209C00934209D14FF400000121FFF765FD4FF485
:1020AC0000000021FFF760FD0837BD4680BD00BF72
:1020BC000054004000580040005C004080B58AB0DD
:1020CC0000AF786039600023FB8400237B840423F9
:1020DC00BB84574BFB617B689B88FB84FB8C23F098
:1020EC003F03FB8407F10C031846FFF7A1FA7B6949
:1020FC00FB61FB694F4AA2FB03239B0C7B84FA8C8C
:10210C007B8C1343FB847B68FA8C9A807B681B88DE
:10211C009BB223F001039AB27B681A800023FB84E4
:10212C003B681B68444A934215D83B681B685B00AC
:10213C00FA69B2FBF3F3BB84BB8C032B01D80423E9
:10214C00BB84FA8CBB8C1343FB847B8C01339AB21B
:10215C007B681A8440E03B68DB884BF6FF72934245
:10216C0009D13B681A6813465B001344FA69B2FB49
:10217C00F3F3BB840EE03B681A6813469B001344D0
:10218C009A001344FA69B2FBF3F3BB84BB8C43F49F
:10219C008043BB84BB8CC3F30B03002B03D1BB8CE0
:1021AC0043F00103BB84BA8CFB8C13439BB26FEAE4
:1021BC0043436FEA5343FB847B8C4FF4967202FBD0
:1021CC0003F31E4A82FB03129211DB17D31A9BB244
:1021DC0001339AB27B681A847B68FA8C9A837B6889
:1021EC001B889BB243F001039AB27B681A807B6810
:1021FC001B88FB84FB8C23F4816323F00203FB8498
:10220C003B689A883B685B8913439AB2FB8C1343F7
:10221C00FB847B68FA8C1A803B689A893B681B8923
:10222C0013439AB27B681A812837BD4680BD00BF24
:10223C0000127A0083DE1B43A0860100D34D62108E
:10224C0080B483B000AF78607B6841F288321A604A
:10225C007B6800229A807B684BF6FF72DA807B6881
:10226C0000221A817B6800225A817B684FF48042DD
:10227C009A810C37BD465DF8047B704780B483B0FF
:10228C0000AF78600B46FB70FB78002B08D07B68A6
:10229C001B889BB243F001039AB27B681A8007E05B
:1022AC007B681B889BB223F001039AB27B681A806F
:1022BC000C37BD465DF8047B704700BF80B483B01B
:1022CC0000AF78600B46FB70FB78002B08D07B6866
:1022DC009B8C9BB223F010039AB27B689A8407E024
:1022EC007B689B8C9BB243F010039AB27B689A84F8
:1022FC000C37BD465DF8047B704700BF80B485B0D9
:10230C0000AF78600B467B800023FB817B689B8C45
:10231C00FB81FB8923F00F03FB817B8803F00F0308
:10232C009AB2FB8913439BB2FB817B68FA899A842E
:10233C001437BD465DF8047B704700BF80B483B092
:10234C0000AF78600B46FB70FB78002B08D07B68E5
:10235C001B889BB243F480739AB27B681A8007E0A7
:10236C007B681B889BB223F480739AB27B681A80BB
:10237C000C37BD465DF8047B704700BF80B483B05A
:10238C0000AF78600B46FB70FB78002B08D07B68A5
:10239C001B889BB243F400739AB27B681A8007E0E7
:1023AC007B681B889BB223F400739AB27B681A80FB
:1023BC000C37BD465DF8047B704700BF80B483B01A
:1023CC0000AF78600B46FB701346BB70BB78002BDC
:1023DC0004D0FB7843F00103FB7003E0FB7823F09F
:1023EC000103FB70FB789AB27B681A820C37BD46EE
:1023FC005DF8047B704700BF80B483B000AF786099
:10240C000B46FB70FB78002B08D07B681B889BB2BB
:10241C0043F480639AB27B681A8007E07B681B8860
:10242C009BB223F480639AB27B681A800C37BD464A
:10243C005DF8047B704700BF80B485B000AF786056
:10244C000B46FB700023FB817B689B89FB81FB891E
:10245C0023F0FE03FB81FB789BB203F0FE039AB2E0
:10246C00FB8913439BB2FB817B68FA899A811437F1
:10247C00BD465DF8047B704780B483B000AF7860D4
:10248C000B46FB70FB78002B08D07B689B899BB2BA
:10249C0043F001039AB27B689A8107E07B689B89C1
:1024AC009BB223F001039AB27B689A810C37BD462C
:1024BC005DF8047B704700BF80B483B000AF7860D8
:1024CC000B46FB70FB78002B08D07B681B889BB2FB
:1024DC0043F040039AB27B681A8007E07B681B8844
:1024EC009BB223F040039AB27B681A800C37BD462E
:1024FC005DF8047B704700BF80B483B000AF786098
:10250C000B46FB70FB78002B0AD07B681B889BB2B8
:10251C006FEA43436FEA53439AB27B681A8007E031
:10252C007B681B889BB2C3F30E039AB27B681A803C
:10253C000C37BD465DF8047B704700BF80B483B098
:10254C0000AF78600B46FB70FB78002B08D17B68E2
:10255C001B889BB243F080039AB27B681A8007E019
:10256C007B681B889BB223F080039AB27B681A802D
:10257C000C37BD465DF8047B704700BF80B483B058
:10258C0000AF78600B467B807B88B3F5804F08D01A
:10259C007B689B8B9BB223F480439AB27B689A83B3
:1025AC0007E07B689B8B9BB243F480439AB27B68B9
:1025BC009A830C37BD465DF8047B704780B483B0BA
:1025CC0000AF78600B467B807B88B3F5006F08D139
:1025DC007B681B889BB243F400639AB27B681A80B9
:1025EC0007E07B681B889BB223F400639AB27B687C
:1025FC001A800C37BD465DF8047B704780B483B0FD
:10260C0000AF78600B467B807B88B3F5005F08D108
:10261C007B681B889BB243F400539AB27B681A8088
:10262C0007E07B681B889BB223F400539AB27B684B
:10263C001A800C37BD465DF8047B704780B483B0BC
:10264C0000AF78600B46FB70FB78002B08D07B68E2
:10265C001B889BB243F010039AB27B681A8007E088
:10266C007B681B889BB223F010039AB27B681A809C
:10267C000C37BD465DF8047B704700BF80B483B057
:10268C0000AF78600B46FB70FB789AB27B681A82BD
:10269C000C37BD465DF8047B704700BF80B483B037
:1026AC0000AF78607B681B8A9BB2DBB218460C3794
:1026BC00BD465DF8047B704780B483B000AF786092
:1026CC000B46FB70FB78002B08D07B681B889BB2F9
:1026DC0043F480539AB27B681A8007E07B681B88AE
:1026EC009BB223F480539AB27B681A800C37BD4698
:1026FC005DF8047B704700BF80B483B000AF786096
:10270C000B467B807B88B3F5006F08D17B681B88F8
:10271C009BB243F400639AB27B681A8007E07B6833
:10272C001B889BB223F400639AB27B681A800C3727
:10273C00BD465DF8047B704780B483B000AF786011
:10274C000B46FB70FB78002B08D07B681B889BB278
:10275C0043F020039AB27B681A8007E07B681B88E1
:10276C009BB223F020039AB27B681A800C37BD46CB
:10277C005DF8047B704700BF80B483B000AF786015
:10278C007B681B8B9BB21B0A9BB2DBB218460C37C7
:10279C00BD465DF8047B704780B483B000AF7860B1
:1027AC000B46FB70FB78002B08D07B689B889BB298
:1027BC0043F400639AB27B689A8007E07B689B883D
:1027CC009BB223F400639AB27B689A800C37BD46A7
:1027DC005DF8047B704700BF80B483B000AF7860B5
:1027EC000B46FB70FB78002B08D07B689B889BB258
:1027FC0043F480539AB27B689A8007E07B689B888D
:10280C009BB223F480539AB27B689A800C37BD46F6
:10281C005DF8047B704700BF80B485B000AF786072
:10282C000B46FB700023FB607B68FB60FA78FB684F
:10283C001344FB60FB681B889BB218461437BD46DB
:10284C005DF8047B704700BF80B483B000AF786044
:10285C000B467B8013467B707B78002B08D07B6803
:10286C009B889AB27B8813439AB27B689A8009E062
:10287C007B689B889AB27B88DB439BB213409AB2ED
:10288C007B689A800C37BD465DF8047B704700BFAF
:10289C0080B487B000AF7860396000233B610023BF
:1028AC00FB600023BB600023FB757B689B8A9BB29B
:1028BC00FB607B681B8B9BB2BB60BB681B04BB6063
:1028CC00FA68BB68134323F07F433B613A693B686A
:1028DC001A403B689A4202D10123FB7501E00023A8
:1028EC00FB75FB7D18461C37BD465DF8047B7047B5
:1028FC0080B487B000AF786000237B6100233B611C
:10290C000023FB607B689B8A9BB23B617B681B8BC3
:10291C009BB2FB60FB681B04FB603A69FB681343CA
:10292C0023F07F437B617B6918461C37BD465DF8FD
:10293C00047B704780B487B000AF786039600023A7
:10294C00FB7500233B610023FB607B68FB603B68ED
:10295C001B0F3B613B6823F07F433B603B69002BC3
:10296C0003D0FB681433FB6005E03B681B0C3B6039
:10297C00FB681833FB60FB681A683B681340002B3C
:10298C0002D00123FB7501E00023FB75FB7D18468B
:10299C001C37BD465DF8047B704700BF80B485B022
:1029AC0000AF786039600023FB603B6823F07F4305
:1029BC00FB60FB689BB2DB439AB27B689A8214374C
:1029CC00BD465DF8047B704780B485B000AF78607D
:1029DC0039600023FB730023BB603B6803F0E063AA
:1029EC001B0C7A68928892B21340BB603B6823F050
:1029FC007F433B607B689B8A9BB21A463B681340C3
:102A0C00002B05D0BB68002B02D00123FB7301E027
:102A1C000023FB73FB7B18461437BD465DF8047B23
:102A2C00704700BF80B485B000AF78603960002378
:102A3C00FB603B6823F07F43FB60FB689BB2DB438E
:102A4C009AB27B689A821437BD465DF8047B704756
:102A5C0080B483B000AF78607B681B6823F0010200
:102A6C007B681A607B6800221A607B6800225A60BF
:102A7C007B6800229A607B680022DA607B68002207
:102A8C001A617B6821225A617B68454A934203D1C3
:102A9C00444B3D229A607EE07B68434A934204D1CA
:102AAC00404B4FF474629A6075E07B683F4A9342E6
:102ABC0004D13C4B4FF474129A606CE07B683C4A36
:102ACC00934204D1374B4FF074629A6063E07B6899
:102ADC00384A934203D1334B374ADA605BE07B6868
:102AEC00364A934203D12F4B354ADA6053E07B6868
:102AFC00344A934203D12B4B334ADA604BE07B6868
:102B0C00324A934204D1274B4FF03D52DA6042E0F7
:102B1C007B682F4A934203D12E4B3D229A603AE0B8
:102B2C007B682D4A934204D12A4B4FF474629A600D
:102B3C0031E07B68294A934204D1264B4FF474123E
:102B4C009A6028E07B68264A934204D1214B4FF0CF
:102B5C0074629A601FE07B68224A934203D11D4B3A
:102B6C00154ADA6017E07B681F4A934203D1194B70
:102B7C00134ADA600FE07B681C4A934203D1154B71
:102B8C00114ADA6007E07B68194A934203D1114B72
:102B9C004FF03D52DA600C37BD465DF8047B704750
:102BAC001060024000600240286002404060024019
:102BBC0058600240706002403D0000208860024076
:102BCC00400F0020A060024000003D20B860024091
:102BDC0010640240006402402864024040640240D9
:102BEC00586402407064024088640240A064024051
:102BFC00B864024080B485B000AF786039600023BF
:102C0C00FB607B681B68FB60FA68244B1340FB601D
:102C1C003B681A683B68DB681A433B685B691A437C
:102C2C003B689B691A433B68DB691A433B681B6A28
:102C3C001A433B685B6A1A433B689B6A1A433B68BE
:102C4C005B6B1A433B689B6B1343FA681343FB6043
:102C5C007B68FA681A607B685B69FB60FB6823F031
:102C6C000703FB603B68DA6A3B681B6B1343FA682B
:102C7C001343FB607B68FA685A613B681A697B688E
:102C8C005A603B685A687B689A603B689A687B68B4
:102C9C00DA601437BD465DF8047B70473F801CF04A
:102CAC0080B483B000AF78607B6800221A607B68C8
:102CBC0000225A607B6800229A607B680022DA60EE
:102CCC007B6800221A617B6800225A617B680022B3
:102CDC009A617B680022DA617B6800221A627B6849
:102CEC0000225A627B6800229A627B680022DA62B8
:102CFC007B6800221A637B6800225A637B6800227F
:102D0C009A630C37BD465DF8047B704780B483B082
:102D1C0000AF78600B46FB70FB78002B06D07B680D
:102D2C001B6843F001027B681A6005E07B681B6836
:102D3C0023F001027B681A600C37BD465DF8047BFA
:102D4C00704700BF80B483B000AF786039603B68D7
:102D5C00002B06D07B681B6843F400427B681A602A
:102D6C0005E07B681B6823F400427B681A600C3713
:102D7C00BD465DF8047B704780B483B000AF7860CB
:102D8C0039603B68002B06D07B681B6843F020023F
:102D9C007B681A6005E07B681B6823F020027B6867
:102DAC001A600C37BD465DF8047B704780B483B065
:102DBC0000AF78600B467B807A887B685A600C3752
:102DCC00BD465DF8047B704780B483B000AF78607B
:102DDC007B685B689BB218460C37BD465DF8047B7C
:102DEC00704700BF80B485B000AFF860B9607A60FE
:102DFC007B68002B06D0FB681B6843F40022FB6841
:102E0C001A6005E0FB681B6823F40022FB681A605B
:102E1C00FB68BA681A611437BD465DF8047B7047CD
:102E2C0080B483B000AF78600B46FB70FB78002B4E
:102E3C0006D07B681B6843F480227B681A6005E02F
:102E4C007B681B6823F480227B681A600C37BD46B4
:102E5C005DF8047B704700BF80B485B000AFF860AC
:102E6C00B9607A607B68002B03D0FB68BA681A6182
:102E7C0002E0FB68BA68DA601437BD465DF8047B83
:102E8C00704700BF80B485B000AF78600023FB6052
:102E9C007B681B6803F40023002B02D00123FB602A
:102EAC0001E00023FB60FB6818461437BD465DF853
:102EBC00047B704780B485B000AF78600023FB734F
:102ECC007B681B6803F00103002B02D00123FB730A
:102EDC0001E00023FB73FB7B18461437BD465DF8FD
:102EEC00047B704780B485B000AF78600023FB6032
:102EFC007B685B6903F03803FB60FB68184614378A
:102F0C00BD465DF8047B704780B487B000AF786035
:102F1C0039600023FB750023FB607B68154A9342E4
:102F2C0002D8154B3B6101E0144B3B613B6803F04D
:102F3C000053002B03D03B695B68FB6002E03B69EC
:102F4C001B68FB60FB6823F0F02323F08213FB600B
:102F5C00FA683B681340002B02D00123FB7501E09B
:102F6C000023FB75FB7D18461C37BD465DF8047BC2
:102F7C00704700BF0F6402400060024000640240D2
:102F8C0080B485B000AF786039607B68104A93429A
:102F9C0002D8104BFB6001E00F4BFB603B6803F069
:102FAC000053002B07D03B6823F0F02323F082134F
:102FBC00FA68D36006E03B6823F0F02323F0821319
:102FCC00FA6893601437BD465DF8047B704700BF08
:102FDC000F640240006002400064024080B485B07F
:102FEC0000AFF860B9601346FB71BB6803F0800357
:102FFC00002B0FD0FB79002B06D0FB685B6943F0EC
:10300C008002FB685A6105E0FB685B6923F0800273
:10301C00FB685A61BB68802B14D0FB79002B08D05D
:10302C00FB681A68BB6803F01E031A43FB681A603E
:10303C0008E0FB681A68BB6803F01E03DB431A4008
:10304C00FB681A601437BD465DF8047B704700BFFF
:10305C0080B487B000AF786039600023FB75002323
:10306C00FB600023BB607B68224A934202D8224B50
:10307C003B6101E0214B3B613B6823F0F02323F0E3
:10308C00C313002B0AD03B68DB0A03F01E03FB6062
:10309C007B681A68FB681340BB6004E07B685B6963
:1030AC0003F08003BB603B6803F00053002B03D09C
:1030BC003B695B68FB6002E03B691B68FB60FB687B
:1030CC0023F0F02323F08213FB60FA683B68134073
:1030DC00002B05D0BB68002B02D00123FB7501E04F
:1030EC000023FB75FB7D18461C37BD465DF8047B41
:1030FC00704700BF0F640240006002400064024051
:10310C0080B485B000AF786039607B68104A934218
:10311C0002D8104BFB6001E00F4BFB603B6803F0E7
:10312C000053002B07D03B6823F0F02323F08213CD
:10313C00FA68D36006E03B6823F0F02323F0821397
:10314C00FA6893601437BD465DF8047B704700BF86
:10315C000F6402400060024000640240F434000836
:10316C00000000206404002068040020CC0400202F
:10317C00002103E00A4B5B584350043109480A4BC9
:10318C0042189A42F6D3094A02E0002342F8043B63
:10319C00074B9A42F9D3FDF709F9FDF787F8704709
:1031AC00F4340008000000206404002068040020AF
:1031BC00CC040020FEE70000014600200246034636
:1031CC0000F09CB808B50021044600F0F3F8044B5D
:1031DC001868C36B03B19847204600F055F900BF3F
:1031EC00C034000838B5084B084DED1AAC1018BFA8
:1031FC00ED1805D0013C55F8043D9847002CF9D149
:10320C00BDE8384000F060B9F0340008F434000830
:10321C0070B50F4E0F4D761BB61018BF002405D09D
:10322C00013455F8043B9847A642F9D10A4E0B4D90
:10323C00761B00F043F9B61018BF002406D00134F9
:10324C0055F8043B9847A642F9D170BD70BD00BF3C
:10325C00E8340008E8340008F0340008E8340008CA
:10326C0070B4840746D0541E002A41D0CDB2034618
:10327C0002E0621EE4B3144603F8015B9A07F8D12E
:10328C00032C2ED9CDB245EA05250F2C45EA054570
:10329C0019D903F110022646103E0F2E42F8105C8D
:1032AC0042F80C5C42F8085C42F8045C02F1100233
:1032BC00F2D8A4F1100222F00F0204F00F04103225
:1032CC00032C13440DD91E462246043A032A46F811
:1032DC00045BFAD8221F22F003020432134404F0D8
:1032EC0003042CB1C9B21C4403F8011BA342FBD14B
:1032FC0070BC704714460346C2E700BF2DE9F04787
:10330C00254C2568D5F8484106468846924699468C
:10331C00CCB360681F2818DC431C7EB104EB80051D
:10332C000121C5F888A0D4F8887101FA00F217437E
:10333C00022EC4F88871C5F808911ED00230636063
:10334C0044F820800020BDE8F087144B03B34FF401
:10335C00C870AFF300800446D0B1D5F848310027CF
:10336C0080E88800C5F8484138460123C4F88871C4
:10337C00C4F88C71002EE1D0D0E7D4F88C110A433C
:10338C00C4F88C21DAE705F5A674C5F84841C0E706
:10339C004FF0FF30BDE8F087C0340008000000009B
:1033AC00024B13B10248FFF707BF70470000000043
:1033BC00F13100082DE9F04F314B83B01B680093BD
:1033CC0003F5A47381460E460193009BD3F8487114
:1033DC0027B3DDF804A07C68651E0ED4013407EB1E
:1033EC0084044FF00008E6B1D4F80031B34218D091
:1033FC00013D6B1CA4F10404F5D1224B73B17B6825
:10340C00002B36D13B68002B34D03846CAF800303C
:10341C00AFF30080DAF80070002FDCD103B0BDE808
:10342C00F08F7B682268013BAB420CBF7D60C4F817
:10343C000080002ADCD0D7F88831D7F804B00121FD
:10344C00A940194208D190477B685B45BDD1DAF899
:10345C000030BB42CCD0B8E7D7F88C31194204D13C
:10346C004846D4F880109047EEE7D4F88000904797
:10347C00EAE73B68BA461F46002FACD1CEE700BF47
:10348C00C034000800000000FEE700BF0020004030
:10349C00400000004000000001000000010000009E
:1034AC000100000000000000000000000600000009
:1034BC00430000003800002000000000F8B500BFF9
:1034CC00F8BC08BC9E467047F8B500BFF8BC08BCF9
:0434DC009E46704751
:0834E00070CDFF7F0100000028
:0834E800AD33000819020008D1
:0434F000F1010008DE
:1034F40000000000007A030A000000000000000041
:1035040001020304060708090018024000180240DB
:103514000000024000000000010203040102030451
:103524000607080900000000000000002403002032
:103534008C030020F40300200000000000000000C1
:103544000000000000000000000000000000000077
:10355400000000000000000000000000BC3400086F
:103564000000000000000000000000000000000057
:103574000000000000000000000000000000000047
:103584000000000000000000000000000000000037
:103594000000000000000000000000000000000027
:1035A4000000000000000000000000000000000017
:1035B4000000000000000000000000000000000007
:1035C40000000000000000000000000000000000F7
:1035D40001000000000000000E33CDAB34126DE694
:1035E400ECDE05000B0000000000000000000000FD
:1035F40000000000000000000000000000000000C7
:1036040000000000000000000000000000000000B6
:1036140000000000000000000000000000000000A6
:103624000000000000000000000000000000000096
:043954003800002017
:04395800000000006B
:040000050800317D41
:00000001FF
